{
  "address": "0x9fE46736679d2D9a65F0992F2272dE9f3c7fa6e0",
  "abi": [
    {
      "inputs": [
        {
          "internalType": "address",
          "name": "_admin",
          "type": "address"
        },
        {
          "internalType": "address",
          "name": "_ico_token",
          "type": "address"
        },
        {
          "internalType": "uint256",
          "name": "_ico_start_time",
          "type": "uint256"
        }
      ],
      "stateMutability": "nonpayable",
      "type": "constructor"
    },
    {
      "anonymous": false,
      "inputs": [
        {
          "indexed": true,
          "internalType": "address",
          "name": "_address",
          "type": "address"
        },
        {
          "indexed": false,
          "internalType": "bool",
          "name": "status",
          "type": "bool"
        }
      ],
      "name": "Claimed",
      "type": "event"
    },
    {
      "anonymous": false,
      "inputs": [
        {
          "indexed": true,
          "internalType": "address",
          "name": "_address",
          "type": "address"
        },
        {
          "indexed": false,
          "internalType": "bool",
          "name": "status",
          "type": "bool"
        }
      ],
      "name": "Registered",
      "type": "event"
    },
    {
      "inputs": [],
      "name": "ICO_DURATION",
      "outputs": [
        {
          "internalType": "uint256",
          "name": "",
          "type": "uint256"
        }
      ],
      "stateMutability": "view",
      "type": "function"
    },
    {
      "inputs": [],
      "name": "admin",
      "outputs": [
        {
          "internalType": "address",
          "name": "",
          "type": "address"
        }
      ],
      "stateMutability": "view",
      "type": "function"
    },
    {
      "inputs": [],
      "name": "claim",
      "outputs": [
        {
          "internalType": "bool",
          "name": "",
          "type": "bool"
        }
      ],
      "stateMutability": "nonpayable",
      "type": "function"
    },
    {
      "inputs": [
        {
          "internalType": "address",
          "name": "",
          "type": "address"
        }
      ],
      "name": "claimed_addresses",
      "outputs": [
        {
          "internalType": "bool",
          "name": "",
          "type": "bool"
        }
      ],
      "stateMutability": "view",
      "type": "function"
    },
    {
      "inputs": [],
      "name": "ico_start_time",
      "outputs": [
        {
          "internalType": "uint256",
          "name": "",
          "type": "uint256"
        }
      ],
      "stateMutability": "view",
      "type": "function"
    },
    {
      "inputs": [],
      "name": "ico_token",
      "outputs": [
        {
          "internalType": "address",
          "name": "",
          "type": "address"
        }
      ],
      "stateMutability": "view",
      "type": "function"
    },
    {
      "inputs": [],
      "name": "register",
      "outputs": [],
      "stateMutability": "payable",
      "type": "function"
    },
    {
      "inputs": [
        {
          "internalType": "address",
          "name": "",
          "type": "address"
        }
      ],
      "name": "registered_addresses",
      "outputs": [
        {
          "internalType": "bool",
          "name": "",
          "type": "bool"
        }
      ],
      "stateMutability": "view",
      "type": "function"
    },
    {
      "inputs": [],
      "name": "withdrawEther",
      "outputs": [],
      "stateMutability": "nonpayable",
      "type": "function"
    }
  ],
  "transactionHash": "0xce895f1289f4a46a040287045eee1aeb0d7b6ea574c7abb8b883bb6b274c51d6",
  "args": [
    "0xf39Fd6e51aad88F6F4ce6aB8827279cffFb92266",
    "0x846C9D65404B5325163f2850DAcF7C3Dff9ef0B2",
    1696598383
  ],
  "numDeployments": 3,
  "solcInputHash": "12014c763e0495ecab5a7d46d294c285",
  "bytecode": "0x60806040523480156200001157600080fd5b50604051620010363803806200103683398181016040528101906200003791906200016d565b826000806101000a81548173ffffffffffffffffffffffffffffffffffffffff021916908373ffffffffffffffffffffffffffffffffffffffff16021790555081600160006101000a81548173ffffffffffffffffffffffffffffffffffffffff021916908373ffffffffffffffffffffffffffffffffffffffff16021790555080600481905550505050620001c9565b600080fd5b600073ffffffffffffffffffffffffffffffffffffffff82169050919050565b6000620000fa82620000cd565b9050919050565b6200010c81620000ed565b81146200011857600080fd5b50565b6000815190506200012c8162000101565b92915050565b6000819050919050565b620001478162000132565b81146200015357600080fd5b50565b60008151905062000167816200013c565b92915050565b600080600060608486031215620001895762000188620000c8565b5b600062000199868287016200011b565b9350506020620001ac868287016200011b565b9250506040620001bf8682870162000156565b9150509250925092565b610e5d80620001d96000396000f3fe6080604052600436106100865760003560e01c8063becbf99a11610059578063becbf99a14610102578063c9d82c961461013f578063dca9ac191461016a578063f851a44014610195578063fedbac17146101c057610086565b80631aa3a0081461008b5780634e71d92d146100955780637362377b146100c057806398d7fee4146100d7575b600080fd5b6100936101fd565b005b3480156100a157600080fd5b506100aa6103d4565b6040516100b7919061086f565b60405180910390f35b3480156100cc57600080fd5b506100d56106c6565b005b3480156100e357600080fd5b506100ec6107bd565b6040516100f991906108a3565b60405180910390f35b34801561010e57600080fd5b5061012960048036038101906101249190610921565b6107c3565b604051610136919061086f565b60405180910390f35b34801561014b57600080fd5b506101546107e3565b60405161016191906108a3565b60405180910390f35b34801561017657600080fd5b5061017f6107ea565b60405161018c919061095d565b60405180910390f35b3480156101a157600080fd5b506101aa610810565b6040516101b7919061095d565b60405180910390f35b3480156101cc57600080fd5b506101e760048036038101906101e29190610921565b610834565b6040516101f4919061086f565b60405180910390f35b662386f26fc100003414610246576040517f08c379a000000000000000000000000000000000000000000000000000000000815260040161023d906109fb565b60405180910390fd5b600260003373ffffffffffffffffffffffffffffffffffffffff1673ffffffffffffffffffffffffffffffffffffffff16815260200190815260200160002060009054906101000a900460ff16156102d3576040517f08c379a00000000000000000000000000000000000000000000000000000000081526004016102ca90610a67565b60405180910390fd5b6000620151806004546102e69190610ab6565b905080421061032a576040517f08c379a000000000000000000000000000000000000000000000000000000000815260040161032190610b36565b60405180910390fd5b6001600260003373ffffffffffffffffffffffffffffffffffffffff1673ffffffffffffffffffffffffffffffffffffffff16815260200190815260200160002060006101000a81548160ff0219169083151502179055503373ffffffffffffffffffffffffffffffffffffffff167f472c2fec85816a6e426ac9b8a4971b1224a52b6289cb30147b3918fb91dfce5360016040516103c9919061086f565b60405180910390a250565b600080620151806004546103e89190610ab6565b905080421161042c576040517f08c379a000000000000000000000000000000000000000000000000000000000815260040161042390610ba2565b60405180910390fd5b600260003373ffffffffffffffffffffffffffffffffffffffff1673ffffffffffffffffffffffffffffffffffffffff16815260200190815260200160002060009054906101000a900460ff166104b8576040517f08c379a00000000000000000000000000000000000000000000000000000000081526004016104af90610c0e565b60405180910390fd5b600360003373ffffffffffffffffffffffffffffffffffffffff1673ffffffffffffffffffffffffffffffffffffffff16815260200190815260200160002060009054906101000a900460ff1615610545576040517f08c379a000000000000000000000000000000000000000000000000000000000815260040161053c90610ca0565b60405180910390fd5b6000600160009054906101000a900473ffffffffffffffffffffffffffffffffffffffff1690508073ffffffffffffffffffffffffffffffffffffffff166323b872dd60008054906101000a900473ffffffffffffffffffffffffffffffffffffffff16336802b5e3af16b18800006040518463ffffffff1660e01b81526004016105d293929190610d05565b6020604051808303816000875af11580156105f1573d6000803e3d6000fd5b505050506040513d601f19601f820116820180604052508101906106159190610d68565b506001600360003373ffffffffffffffffffffffffffffffffffffffff1673ffffffffffffffffffffffffffffffffffffffff16815260200190815260200160002060006101000a81548160ff0219169083151502179055503373ffffffffffffffffffffffffffffffffffffffff167f650639b17ab5dbad2d79a2e4757e3be67a53db225cede5d96cb5ab54837b85ce60016040516106b5919061086f565b60405180910390a260019250505090565b60008054906101000a900473ffffffffffffffffffffffffffffffffffffffff1673ffffffffffffffffffffffffffffffffffffffff163373ffffffffffffffffffffffffffffffffffffffff1614610754576040517f08c379a000000000000000000000000000000000000000000000000000000000815260040161074b90610e07565b60405180910390fd5b60008054906101000a900473ffffffffffffffffffffffffffffffffffffffff1673ffffffffffffffffffffffffffffffffffffffff166108fc479081150290604051600060405180830381858888f193505050501580156107ba573d6000803e3d6000fd5b50565b60045481565b60026020528060005260406000206000915054906101000a900460ff1681565b6201518081565b600160009054906101000a900473ffffffffffffffffffffffffffffffffffffffff1681565b60008054906101000a900473ffffffffffffffffffffffffffffffffffffffff1681565b60036020528060005260406000206000915054906101000a900460ff1681565b60008115159050919050565b61086981610854565b82525050565b60006020820190506108846000830184610860565b92915050565b6000819050919050565b61089d8161088a565b82525050565b60006020820190506108b86000830184610894565b92915050565b600080fd5b600073ffffffffffffffffffffffffffffffffffffffff82169050919050565b60006108ee826108c3565b9050919050565b6108fe816108e3565b811461090957600080fd5b50565b60008135905061091b816108f5565b92915050565b600060208284031215610937576109366108be565b5b60006109458482850161090c565b91505092915050565b610957816108e3565b82525050565b6000602082019050610972600083018461094e565b92915050565b600082825260208201905092915050565b7f496e636f727265637420616d6f756e742c20706c656173652073656e6420302e60008201527f3031204554480000000000000000000000000000000000000000000000000000602082015250565b60006109e5602683610978565b91506109f082610989565b604082019050919050565b60006020820190508181036000830152610a14816109d8565b9050919050565b7f4164647265737320616c72656164792072656769737465726564000000000000600082015250565b6000610a51601a83610978565b9150610a5c82610a1b565b602082019050919050565b60006020820190508181036000830152610a8081610a44565b9050919050565b7f4e487b7100000000000000000000000000000000000000000000000000000000600052601160045260246000fd5b6000610ac18261088a565b9150610acc8361088a565b9250828201905080821115610ae457610ae3610a87565b5b92915050565b7f49434f2068617320656e64656400000000000000000000000000000000000000600082015250565b6000610b20600d83610978565b9150610b2b82610aea565b602082019050919050565b60006020820190508181036000830152610b4f81610b13565b9050919050565b7f49434f206973207374696c6c206f6e676f696e67000000000000000000000000600082015250565b6000610b8c601483610978565b9150610b9782610b56565b602082019050919050565b60006020820190508181036000830152610bbb81610b7f565b9050919050565b7f41646472657373206973206e6f74207265676973746572656400000000000000600082015250565b6000610bf8601983610978565b9150610c0382610bc2565b602082019050919050565b60006020820190508181036000830152610c2781610beb565b9050919050565b7f416464726573732068617320616c726561647920636c61696d656420746f6b6560008201527f6e73000000000000000000000000000000000000000000000000000000000000602082015250565b6000610c8a602283610978565b9150610c9582610c2e565b604082019050919050565b60006020820190508181036000830152610cb981610c7d565b9050919050565b6000819050919050565b6000819050919050565b6000610cef610cea610ce584610cc0565b610cca565b61088a565b9050919050565b610cff81610cd4565b82525050565b6000606082019050610d1a600083018661094e565b610d27602083018561094e565b610d346040830184610cf6565b949350505050565b610d4581610854565b8114610d5057600080fd5b50565b600081519050610d6281610d3c565b92915050565b600060208284031215610d7e57610d7d6108be565b5b6000610d8c84828501610d53565b91505092915050565b7f4f6e6c792061646d696e2063616e2063616c6c20746869732066756e6374696f60008201527f6e00000000000000000000000000000000000000000000000000000000000000602082015250565b6000610df1602183610978565b9150610dfc82610d95565b604082019050919050565b60006020820190508181036000830152610e2081610de4565b905091905056fea264697066735822122047b93c0abbb8ba86fa5c9c43e045172ee52079d47656fe97e1f1630862a0561d64736f6c63430008130033",
  "devdoc": {
    "kind": "dev",
    "methods": {
      "claim()": {
        "details": "Function to allow registered users to claim BUNN tokens after the ICO has ended. Each user can claim 50 BUNN tokens, and claiming is only allowed once per address."
      },
      "constructor": {
        "details": "Constructor function to initialize contract state"
      },
      "register()": {
        "details": "Function to allow users to register for the ICO by sending 0.01 ETH Users can only register once, and registration is allowed during the ICO period."
      },
      "withdrawEther()": {
        "details": "Function to allow the admin to withdraw any remaining Ether in the contract Only the contract admin can call this function."
      }
    },
    "version": 1
  },
  "userdoc": {
    "kind": "user",
    "methods": {},
    "version": 1
  },
  "storageLayout": {
    "storage": [
      {
        "astId": 85,
        "contract": "contracts/BUNN_ICO.sol:BUNN_ICO",
        "label": "admin",
        "offset": 0,
        "slot": "0",
        "type": "t_address"
      },
      {
        "astId": 87,
        "contract": "contracts/BUNN_ICO.sol:BUNN_ICO",
        "label": "ico_token",
        "offset": 0,
        "slot": "1",
        "type": "t_address"
      },
      {
        "astId": 91,
        "contract": "contracts/BUNN_ICO.sol:BUNN_ICO",
        "label": "registered_addresses",
        "offset": 0,
        "slot": "2",
        "type": "t_mapping(t_address,t_bool)"
      },
      {
        "astId": 95,
        "contract": "contracts/BUNN_ICO.sol:BUNN_ICO",
        "label": "claimed_addresses",
        "offset": 0,
        "slot": "3",
        "type": "t_mapping(t_address,t_bool)"
      },
      {
        "astId": 97,
        "contract": "contracts/BUNN_ICO.sol:BUNN_ICO",
        "label": "ico_start_time",
        "offset": 0,
        "slot": "4",
        "type": "t_uint256"
      }
    ],
    "types": {
      "t_address": {
        "encoding": "inplace",
        "label": "address",
        "numberOfBytes": "20"
      },
      "t_bool": {
        "encoding": "inplace",
        "label": "bool",
        "numberOfBytes": "1"
      },
      "t_mapping(t_address,t_bool)": {
        "encoding": "mapping",
        "key": "t_address",
        "label": "mapping(address => bool)",
        "numberOfBytes": "32",
        "value": "t_bool"
      },
      "t_uint256": {
        "encoding": "inplace",
        "label": "uint256",
        "numberOfBytes": "32"
      }
    }
  }
}