{
  "address": "0x0017CAEE2D9f5e2e6Adaef5438EEd608fd72dd0e",
  "abi": [
    {
      "inputs": [],
      "stateMutability": "nonpayable",
      "type": "constructor"
    },
    {
      "anonymous": false,
      "inputs": [
        {
          "indexed": true,
          "internalType": "address",
          "name": "_address",
          "type": "address"
        },
        {
          "indexed": false,
          "internalType": "bool",
          "name": "status",
          "type": "bool"
        }
      ],
      "name": "Claimed",
      "type": "event"
    },
    {
      "anonymous": false,
      "inputs": [
        {
          "indexed": true,
          "internalType": "address",
          "name": "_address",
          "type": "address"
        },
        {
          "indexed": false,
          "internalType": "bool",
          "name": "status",
          "type": "bool"
        }
      ],
      "name": "Registered",
      "type": "event"
    },
    {
      "inputs": [],
      "name": "ICO_DURATION",
      "outputs": [
        {
          "internalType": "uint256",
          "name": "",
          "type": "uint256"
        }
      ],
      "stateMutability": "view",
      "type": "function"
    },
    {
      "inputs": [],
      "name": "admin",
      "outputs": [
        {
          "internalType": "address",
          "name": "",
          "type": "address"
        }
      ],
      "stateMutability": "view",
      "type": "function"
    },
    {
      "inputs": [],
      "name": "claim",
      "outputs": [
        {
          "internalType": "bool",
          "name": "",
          "type": "bool"
        }
      ],
      "stateMutability": "nonpayable",
      "type": "function"
    },
    {
      "inputs": [
        {
          "internalType": "address",
          "name": "",
          "type": "address"
        }
      ],
      "name": "claimed_addresses",
      "outputs": [
        {
          "internalType": "bool",
          "name": "",
          "type": "bool"
        }
      ],
      "stateMutability": "view",
      "type": "function"
    },
    {
      "inputs": [],
      "name": "ico_start_time",
      "outputs": [
        {
          "internalType": "uint256",
          "name": "",
          "type": "uint256"
        }
      ],
      "stateMutability": "view",
      "type": "function"
    },
    {
      "inputs": [],
      "name": "ico_token",
      "outputs": [
        {
          "internalType": "address",
          "name": "",
          "type": "address"
        }
      ],
      "stateMutability": "view",
      "type": "function"
    },
    {
      "inputs": [],
      "name": "register",
      "outputs": [],
      "stateMutability": "payable",
      "type": "function"
    },
    {
      "inputs": [
        {
          "internalType": "address",
          "name": "",
          "type": "address"
        }
      ],
      "name": "registered_addresses",
      "outputs": [
        {
          "internalType": "bool",
          "name": "",
          "type": "bool"
        }
      ],
      "stateMutability": "view",
      "type": "function"
    },
    {
      "inputs": [],
      "name": "withdrawEther",
      "outputs": [],
      "stateMutability": "nonpayable",
      "type": "function"
    }
  ],
  "transactionHash": "0x133f06a4f0d245c074aa5dbcaebe079e91363498e39e05963f6c955739ad5b84",
  "args": [],
  "numDeployments": 1,
  "solcInputHash": "6428e36c2fa8edceb2c933f5059617a2",
  "bytecode": "0x608060405234801561001057600080fd5b50336000806101000a81548173ffffffffffffffffffffffffffffffffffffffff021916908373ffffffffffffffffffffffffffffffffffffffff16021790555073846c9d65404b5325163f2850dacf7c3dff9ef0b2600160006101000a81548173ffffffffffffffffffffffffffffffffffffffff021916908373ffffffffffffffffffffffffffffffffffffffff16021790555042600481905550610e5a806100bc6000396000f3fe6080604052600436106100865760003560e01c8063becbf99a11610059578063becbf99a14610102578063c9d82c961461013f578063dca9ac191461016a578063f851a44014610195578063fedbac17146101c057610086565b80631aa3a0081461008b5780634e71d92d146100955780637362377b146100c057806398d7fee4146100d7575b600080fd5b6100936101fd565b005b3480156100a157600080fd5b506100aa6103d3565b6040516100b7919061086c565b60405180910390f35b3480156100cc57600080fd5b506100d56106c4565b005b3480156100e357600080fd5b506100ec6107bb565b6040516100f991906108a0565b60405180910390f35b34801561010e57600080fd5b506101296004803603810190610124919061091e565b6107c1565b604051610136919061086c565b60405180910390f35b34801561014b57600080fd5b506101546107e1565b60405161016191906108a0565b60405180910390f35b34801561017657600080fd5b5061017f6107e7565b60405161018c919061095a565b60405180910390f35b3480156101a157600080fd5b506101aa61080d565b6040516101b7919061095a565b60405180910390f35b3480156101cc57600080fd5b506101e760048036038101906101e2919061091e565b610831565b6040516101f4919061086c565b60405180910390f35b662386f26fc100003414610246576040517f08c379a000000000000000000000000000000000000000000000000000000000815260040161023d906109f8565b60405180910390fd5b600260003373ffffffffffffffffffffffffffffffffffffffff1673ffffffffffffffffffffffffffffffffffffffff16815260200190815260200160002060009054906101000a900460ff16156102d3576040517f08c379a00000000000000000000000000000000000000000000000000000000081526004016102ca90610a64565b60405180910390fd5b600061012c6004546102e59190610ab3565b9050804210610329576040517f08c379a000000000000000000000000000000000000000000000000000000000815260040161032090610b33565b60405180910390fd5b6001600260003373ffffffffffffffffffffffffffffffffffffffff1673ffffffffffffffffffffffffffffffffffffffff16815260200190815260200160002060006101000a81548160ff0219169083151502179055503373ffffffffffffffffffffffffffffffffffffffff167f472c2fec85816a6e426ac9b8a4971b1224a52b6289cb30147b3918fb91dfce5360016040516103c8919061086c565b60405180910390a250565b60008061012c6004546103e69190610ab3565b905080421161042a576040517f08c379a000000000000000000000000000000000000000000000000000000000815260040161042190610b9f565b60405180910390fd5b600260003373ffffffffffffffffffffffffffffffffffffffff1673ffffffffffffffffffffffffffffffffffffffff16815260200190815260200160002060009054906101000a900460ff166104b6576040517f08c379a00000000000000000000000000000000000000000000000000000000081526004016104ad90610c0b565b60405180910390fd5b600360003373ffffffffffffffffffffffffffffffffffffffff1673ffffffffffffffffffffffffffffffffffffffff16815260200190815260200160002060009054906101000a900460ff1615610543576040517f08c379a000000000000000000000000000000000000000000000000000000000815260040161053a90610c9d565b60405180910390fd5b6000600160009054906101000a900473ffffffffffffffffffffffffffffffffffffffff1690508073ffffffffffffffffffffffffffffffffffffffff166323b872dd60008054906101000a900473ffffffffffffffffffffffffffffffffffffffff16336802b5e3af16b18800006040518463ffffffff1660e01b81526004016105d093929190610d02565b6020604051808303816000875af11580156105ef573d6000803e3d6000fd5b505050506040513d601f19601f820116820180604052508101906106139190610d65565b506001600360003373ffffffffffffffffffffffffffffffffffffffff1673ffffffffffffffffffffffffffffffffffffffff16815260200190815260200160002060006101000a81548160ff0219169083151502179055503373ffffffffffffffffffffffffffffffffffffffff167f650639b17ab5dbad2d79a2e4757e3be67a53db225cede5d96cb5ab54837b85ce60016040516106b3919061086c565b60405180910390a260019250505090565b60008054906101000a900473ffffffffffffffffffffffffffffffffffffffff1673ffffffffffffffffffffffffffffffffffffffff163373ffffffffffffffffffffffffffffffffffffffff1614610752576040517f08c379a000000000000000000000000000000000000000000000000000000000815260040161074990610e04565b60405180910390fd5b60008054906101000a900473ffffffffffffffffffffffffffffffffffffffff1673ffffffffffffffffffffffffffffffffffffffff166108fc479081150290604051600060405180830381858888f193505050501580156107b8573d6000803e3d6000fd5b50565b60045481565b60026020528060005260406000206000915054906101000a900460ff1681565b61012c81565b600160009054906101000a900473ffffffffffffffffffffffffffffffffffffffff1681565b60008054906101000a900473ffffffffffffffffffffffffffffffffffffffff1681565b60036020528060005260406000206000915054906101000a900460ff1681565b60008115159050919050565b61086681610851565b82525050565b6000602082019050610881600083018461085d565b92915050565b6000819050919050565b61089a81610887565b82525050565b60006020820190506108b56000830184610891565b92915050565b600080fd5b600073ffffffffffffffffffffffffffffffffffffffff82169050919050565b60006108eb826108c0565b9050919050565b6108fb816108e0565b811461090657600080fd5b50565b600081359050610918816108f2565b92915050565b600060208284031215610934576109336108bb565b5b600061094284828501610909565b91505092915050565b610954816108e0565b82525050565b600060208201905061096f600083018461094b565b92915050565b600082825260208201905092915050565b7f496e636f727265637420616d6f756e742c20706c656173652073656e6420302e60008201527f3031204554480000000000000000000000000000000000000000000000000000602082015250565b60006109e2602683610975565b91506109ed82610986565b604082019050919050565b60006020820190508181036000830152610a11816109d5565b9050919050565b7f4164647265737320616c72656164792072656769737465726564000000000000600082015250565b6000610a4e601a83610975565b9150610a5982610a18565b602082019050919050565b60006020820190508181036000830152610a7d81610a41565b9050919050565b7f4e487b7100000000000000000000000000000000000000000000000000000000600052601160045260246000fd5b6000610abe82610887565b9150610ac983610887565b9250828201905080821115610ae157610ae0610a84565b5b92915050565b7f49434f2068617320656e64656400000000000000000000000000000000000000600082015250565b6000610b1d600d83610975565b9150610b2882610ae7565b602082019050919050565b60006020820190508181036000830152610b4c81610b10565b9050919050565b7f49434f206973207374696c6c206f6e676f696e67000000000000000000000000600082015250565b6000610b89601483610975565b9150610b9482610b53565b602082019050919050565b60006020820190508181036000830152610bb881610b7c565b9050919050565b7f41646472657373206973206e6f74207265676973746572656400000000000000600082015250565b6000610bf5601983610975565b9150610c0082610bbf565b602082019050919050565b60006020820190508181036000830152610c2481610be8565b9050919050565b7f416464726573732068617320616c726561647920636c61696d656420746f6b6560008201527f6e73000000000000000000000000000000000000000000000000000000000000602082015250565b6000610c87602283610975565b9150610c9282610c2b565b604082019050919050565b60006020820190508181036000830152610cb681610c7a565b9050919050565b6000819050919050565b6000819050919050565b6000610cec610ce7610ce284610cbd565b610cc7565b610887565b9050919050565b610cfc81610cd1565b82525050565b6000606082019050610d17600083018661094b565b610d24602083018561094b565b610d316040830184610cf3565b949350505050565b610d4281610851565b8114610d4d57600080fd5b50565b600081519050610d5f81610d39565b92915050565b600060208284031215610d7b57610d7a6108bb565b5b6000610d8984828501610d50565b91505092915050565b7f4f6e6c792061646d696e2063616e2063616c6c20746869732066756e6374696f60008201527f6e00000000000000000000000000000000000000000000000000000000000000602082015250565b6000610dee602183610975565b9150610df982610d92565b604082019050919050565b60006020820190508181036000830152610e1d81610de1565b905091905056fea26469706673582212202b23b8a6011f20de2626f19b3467154ddcef2ee4dd25f0280c4aa7b44852ae5664736f6c63430008130033",
  "devdoc": {
    "kind": "dev",
    "methods": {},
    "version": 1
  },
  "userdoc": {
    "kind": "user",
    "methods": {},
    "version": 1
  },
  "storageLayout": {
    "storage": [
      {
        "astId": 85,
        "contract": "contracts/BUNN_ICO.sol:BUNN_ICO",
        "label": "admin",
        "offset": 0,
        "slot": "0",
        "type": "t_address"
      },
      {
        "astId": 87,
        "contract": "contracts/BUNN_ICO.sol:BUNN_ICO",
        "label": "ico_token",
        "offset": 0,
        "slot": "1",
        "type": "t_address"
      },
      {
        "astId": 91,
        "contract": "contracts/BUNN_ICO.sol:BUNN_ICO",
        "label": "registered_addresses",
        "offset": 0,
        "slot": "2",
        "type": "t_mapping(t_address,t_bool)"
      },
      {
        "astId": 95,
        "contract": "contracts/BUNN_ICO.sol:BUNN_ICO",
        "label": "claimed_addresses",
        "offset": 0,
        "slot": "3",
        "type": "t_mapping(t_address,t_bool)"
      },
      {
        "astId": 97,
        "contract": "contracts/BUNN_ICO.sol:BUNN_ICO",
        "label": "ico_start_time",
        "offset": 0,
        "slot": "4",
        "type": "t_uint256"
      }
    ],
    "types": {
      "t_address": {
        "encoding": "inplace",
        "label": "address",
        "numberOfBytes": "20"
      },
      "t_bool": {
        "encoding": "inplace",
        "label": "bool",
        "numberOfBytes": "1"
      },
      "t_mapping(t_address,t_bool)": {
        "encoding": "mapping",
        "key": "t_address",
        "label": "mapping(address => bool)",
        "numberOfBytes": "32",
        "value": "t_bool"
      },
      "t_uint256": {
        "encoding": "inplace",
        "label": "uint256",
        "numberOfBytes": "32"
      }
    }
  }
}